{
  "_format": "hh-sol-artifact-1",
  "contractName": "PollenDAO",
  "sourceName": "contracts/PollenDAO/PollenDAO.sol",
  "abi": [
    {
      "anonymous": false,
      "inputs": [
        {
          "indexed": true,
          "internalType": "address",
          "name": "previousAdmin",
          "type": "address"
        },
        {
          "indexed": true,
          "internalType": "address",
          "name": "newAdmin",
          "type": "address"
        }
      ],
      "name": "AdminRoleTransferred",
      "type": "event"
    },
    {
      "anonymous": false,
      "inputs": [
        {
          "indexed": true,
          "internalType": "address",
          "name": "moduleAddr",
          "type": "address"
        }
      ],
      "name": "ModuleAdded",
      "type": "event"
    },
    {
      "anonymous": false,
      "inputs": [
        {
          "indexed": true,
          "internalType": "address",
          "name": "newModuleAddr",
          "type": "address"
        },
        {
          "indexed": false,
          "internalType": "address",
          "name": "oldModuleAddr",
          "type": "address"
        }
      ],
      "name": "ModuleUpdated",
      "type": "event"
    },
    {
      "anonymous": false,
      "inputs": [
        {
          "indexed": true,
          "internalType": "address",
          "name": "pollenTokenAddr",
          "type": "address"
        }
      ],
      "name": "PollenTokenSet",
      "type": "event"
    },
    {
      "stateMutability": "nonpayable",
      "type": "fallback"
    },
    {
      "inputs": [],
      "name": "daoAdmin",
      "outputs": [
        {
          "internalType": "address",
          "name": "",
          "type": "address"
        }
      ],
      "stateMutability": "view",
      "type": "function"
    },
    {
      "inputs": [],
      "name": "initialize",
      "outputs": [],
      "stateMutability": "nonpayable",
      "type": "function"
    },
    {
      "inputs": [
        {
          "internalType": "address",
          "name": "",
          "type": "address"
        }
      ],
      "name": "pollenToken",
      "outputs": [
        {
          "internalType": "address",
          "name": "",
          "type": "address"
        }
      ],
      "stateMutability": "view",
      "type": "function"
    },
    {
      "inputs": [
        {
          "internalType": "address",
          "name": "_moduleAddr",
          "type": "address"
        }
      ],
      "name": "registerModule",
      "outputs": [],
      "stateMutability": "nonpayable",
      "type": "function"
    },
    {
      "inputs": [
        {
          "internalType": "address",
          "name": "pollen",
          "type": "address"
        }
      ],
      "name": "setPollenToken",
      "outputs": [],
      "stateMutability": "nonpayable",
      "type": "function"
    },
    {
      "inputs": [
        {
          "internalType": "address",
          "name": "newAdmin",
          "type": "address"
        }
      ],
      "name": "transferAdminRole",
      "outputs": [],
      "stateMutability": "nonpayable",
      "type": "function"
    },
    {
      "inputs": [
        {
          "internalType": "address",
          "name": "newAddr",
          "type": "address"
        },
        {
          "internalType": "address",
          "name": "oldAddr",
          "type": "address"
        }
      ],
      "name": "updateModule",
      "outputs": [],
      "stateMutability": "nonpayable",
      "type": "function"
    }
  ],
  "bytecode": "0x608060405234801561001057600080fd5b50610a23806100206000396000f3fe608060405234801561001057600080fd5b506004361061007d5760003560e01c80639ea9dd8c1161005b5780639ea9dd8c1461014d578063ad64ae4b14610160578063ada8f91914610173578063e1620f30146101865761007d565b806302de4387146100e8578063100b9481146101305780638129fc1c14610145575b6040517f81d86068035827d44fe690100f2e97ca5a335cf5ebdd9b28f54af00b60c9f6349036600082376004810151368201818152602081018490526040902054806100c857600080fd5b506000803684845af490503d806000843e8180156100e4578184f35b8184fd5b7f81d86068035827d44fe690100f2e97ca5a335cf5ebdd9b28f54af00b60c9f636546001600160a01b03165b6040516001600160a01b03909116815260200160405180910390f35b61014361013e3660046109bb565b6101c3565b005b6101436103c7565b61014361015b36600461099a565b610492565b61014361016e36600461099a565b610644565b61014361018136600461099a565b6107b8565b61011461019436600461099a565b507f81d86068035827d44fe690100f2e97ca5a335cf5ebdd9b28f54af00b60c9f637546001600160a01b031690565b7f81d86068035827d44fe690100f2e97ca5a335cf5ebdd9b28f54af00b60c9f636547f81d86068035827d44fe690100f2e97ca5a335cf5ebdd9b28f54af00b60c9f634906001600160a01b031633146102635760405162461bcd60e51b815260206004820181905260248201527f506f6c6c656e44414f3a2061646d696e2061636365737320726571756972656460448201526064015b60405180910390fd5b6001600160a01b03831660009081527f81d86068035827d44fe690100f2e97ca5a335cf5ebdd9b28f54af00b60c9f634602081905260409091205460ff16156102ee5760405162461bcd60e51b815260206004820152601860248201527f506f6c6c656e44414f3a206d6f64756c65206578697374730000000000000000604482015260640161025a565b6001600160a01b03831660009081526020829052604090205460ff166103565760405162461bcd60e51b815260206004820152601f60248201527f506f6c6c656e44414f3a206d6f64756c6520646f65736e277420657869737400604482015260640161025a565b6001600160a01b03838116600081815260208481526040808320805460ff199081169091559489168084529281902080549095166001179094559251918252917f94090355cefa089509f2588ee4b2bb59a298fb3659084d51fb9031be473778fa910160405180910390a250505050565b600054610100900460ff16806103e0575060005460ff16155b6104525760405162461bcd60e51b815260206004820152602e60248201527f496e697469616c697a61626c653a20636f6e747261637420697320616c72656160448201527f647920696e697469616c697a6564000000000000000000000000000000000000606482015260840161025a565b600054610100900460ff16158015610474576000805461ffff19166101011790555b61047d336108dc565b801561048f576000805461ff00191690555b50565b7f81d86068035827d44fe690100f2e97ca5a335cf5ebdd9b28f54af00b60c9f636547f81d86068035827d44fe690100f2e97ca5a335cf5ebdd9b28f54af00b60c9f634906001600160a01b0316331461052d5760405162461bcd60e51b815260206004820181905260248201527f506f6c6c656e44414f3a2061646d696e20616363657373207265717569726564604482015260640161025a565b6001600160a01b0382166105a95760405162461bcd60e51b815260206004820152602d60248201527f506f6c6c656e44414f3a20706f6c6c656e546f6b656e2063616e6e6f7420626560448201527f207a65726f206164647265737300000000000000000000000000000000000000606482015260840161025a565b7f81d86068035827d44fe690100f2e97ca5a335cf5ebdd9b28f54af00b60c9f637805473ffffffffffffffffffffffffffffffffffffffff19166001600160a01b0384169081179091556040517f81d86068035827d44fe690100f2e97ca5a335cf5ebdd9b28f54af00b60c9f63491907f80e9431df147baf625c782ce68516f4f2db7afc029e14d59c51b0c845680bf5e90600090a2505050565b7f81d86068035827d44fe690100f2e97ca5a335cf5ebdd9b28f54af00b60c9f636547f81d86068035827d44fe690100f2e97ca5a335cf5ebdd9b28f54af00b60c9f634906001600160a01b031633146106df5760405162461bcd60e51b815260206004820181905260248201527f506f6c6c656e44414f3a2061646d696e20616363657373207265717569726564604482015260640161025a565b6001600160a01b03821660009081527f81d86068035827d44fe690100f2e97ca5a335cf5ebdd9b28f54af00b60c9f634602081905260409091205460ff161561076a5760405162461bcd60e51b815260206004820152601860248201527f506f6c6c656e44414f3a206d6f64756c65206578697374730000000000000000604482015260640161025a565b6001600160a01b038316600081815260208390526040808220805460ff19166001179055517fead6a006345da1073a106d5f32372d2d2204f46cb0b4bca8f5ebafcbbed12b8a9190a2505050565b7f81d86068035827d44fe690100f2e97ca5a335cf5ebdd9b28f54af00b60c9f636547f81d86068035827d44fe690100f2e97ca5a335cf5ebdd9b28f54af00b60c9f634906001600160a01b031633146108535760405162461bcd60e51b815260206004820181905260248201527f506f6c6c656e44414f3a2061646d696e20616363657373207265717569726564604482015260640161025a565b6001600160a01b0382166108cf5760405162461bcd60e51b815260206004820152602a60248201527f506f6c6c656e44414f3a206e657741646d696e2063616e6e6f74206265207a6560448201527f726f206164647265737300000000000000000000000000000000000000000000606482015260840161025a565b6108d8826108dc565b5050565b7f81d86068035827d44fe690100f2e97ca5a335cf5ebdd9b28f54af00b60c9f636805473ffffffffffffffffffffffffffffffffffffffff1981166001600160a01b038481169182179093556040517f81d86068035827d44fe690100f2e97ca5a335cf5ebdd9b28f54af00b60c9f634939092169182907fe379ac64de02d8184ca1a871ac486cb8137de77e485ede140e97057b9c765ffd90600090a3505050565b80356001600160a01b038116811461099557600080fd5b919050565b6000602082840312156109ab578081fd5b6109b48261097e565b9392505050565b600080604083850312156109cd578081fd5b6109d68361097e565b91506109e46020840161097e565b9050925092905056fea2646970667358221220dac1599ac7b2bc424ddf55d7489dd7295876921a174f3c51f6c2ff39c332a7f464736f6c63430008040033",
  "linkReferences": {},
  "deployedLinkReferences": {}
}