{
  "_format": "hh-sol-artifact-1",
  "contractName": "Quoter",
  "sourceName": "contracts/PollenDAO/Modules/quoter/Quoter.sol",
  "abi": [
    {
      "anonymous": false,
      "inputs": [
        {
          "indexed": true,
          "internalType": "address",
          "name": "asset",
          "type": "address"
        },
        {
          "indexed": false,
          "internalType": "address",
          "name": "feed",
          "type": "address"
        },
        {
          "indexed": false,
          "internalType": "enum QuoterModuleStorage.RateBase",
          "name": "rateBase",
          "type": "uint8"
        }
      ],
      "name": "PriceFeedAdded",
      "type": "event"
    },
    {
      "anonymous": false,
      "inputs": [
        {
          "indexed": true,
          "internalType": "address",
          "name": "asset",
          "type": "address"
        },
        {
          "indexed": false,
          "internalType": "enum QuoterModuleStorage.RateBase",
          "name": "rateBase",
          "type": "uint8"
        }
      ],
      "name": "PriceFeedRemoved",
      "type": "event"
    },
    {
      "inputs": [
        {
          "internalType": "address",
          "name": "",
          "type": "address"
        },
        {
          "internalType": "enum QuoterModuleStorage.RateBase",
          "name": "rateBase",
          "type": "uint8"
        },
        {
          "internalType": "address",
          "name": "asset",
          "type": "address"
        },
        {
          "internalType": "address",
          "name": "feed",
          "type": "address"
        }
      ],
      "name": "addPriceFeed",
      "outputs": [],
      "stateMutability": "nonpayable",
      "type": "function"
    },
    {
      "inputs": [
        {
          "internalType": "address",
          "name": "",
          "type": "address"
        },
        {
          "internalType": "enum QuoterModuleStorage.RateBase[]",
          "name": "rateBase",
          "type": "uint8[]"
        },
        {
          "internalType": "address[]",
          "name": "asset",
          "type": "address[]"
        },
        {
          "internalType": "address[]",
          "name": "feed",
          "type": "address[]"
        }
      ],
      "name": "addPriceFeeds",
      "outputs": [],
      "stateMutability": "nonpayable",
      "type": "function"
    },
    {
      "inputs": [
        {
          "internalType": "address",
          "name": "",
          "type": "address"
        },
        {
          "internalType": "enum QuoterModuleStorage.RateBase",
          "name": "rateBase",
          "type": "uint8"
        },
        {
          "internalType": "address",
          "name": "asset",
          "type": "address"
        }
      ],
      "name": "getFeed",
      "outputs": [
        {
          "internalType": "address",
          "name": "",
          "type": "address"
        }
      ],
      "stateMutability": "view",
      "type": "function"
    },
    {
      "inputs": [
        {
          "internalType": "address",
          "name": "",
          "type": "address"
        },
        {
          "internalType": "enum QuoterModuleStorage.RateBase",
          "name": "rateBase",
          "type": "uint8"
        },
        {
          "internalType": "address",
          "name": "asset",
          "type": "address"
        }
      ],
      "name": "quotePrice",
      "outputs": [
        {
          "internalType": "uint256",
          "name": "rate",
          "type": "uint256"
        },
        {
          "internalType": "uint256",
          "name": "updatedAt",
          "type": "uint256"
        }
      ],
      "stateMutability": "view",
      "type": "function"
    },
    {
      "inputs": [
        {
          "internalType": "address",
          "name": "",
          "type": "address"
        },
        {
          "internalType": "enum QuoterModuleStorage.RateBase",
          "name": "rateBase",
          "type": "uint8"
        },
        {
          "internalType": "address",
          "name": "asset",
          "type": "address"
        }
      ],
      "name": "removePriceFeed",
      "outputs": [],
      "stateMutability": "nonpayable",
      "type": "function"
    }
  ],
  "bytecode": "0x608060405234801561001057600080fd5b50610eaf806100206000396000f3fe608060405234801561001057600080fd5b50600436106100675760003560e01c80637d5a1f91116100505780637d5a1f91146100ae578063e842a470146100c1578063f0787683146100d457600080fd5b80630ba5a8551461006c578063587255c514610099575b600080fd5b61007f61007a366004610b64565b6100ff565b604080519283526020830191909152015b60405180910390f35b6100ac6100a7366004610b64565b6102dc565b005b6100ac6100bc366004610ba6565b610535565b6100ac6100cf366004610a6d565b6105e2565b6100e76100e2366004610b64565b610723565b6040516001600160a01b039091168152602001610090565b6000807fbc94b9717bcfecf2f78d9ca346bf88df98a718216be6a96dfebd1de8d6697fc081818187600181111561014657634e487b7160e01b600052602160045260246000fd5b600181111561016557634e487b7160e01b600052602160045260246000fd5b8152602080820192909252604090810160009081206001600160a01b03808a1683529084528282205483517f313ce56700000000000000000000000000000000000000000000000000000000815293519116945084939192849263313ce56792600480840193829003018186803b1580156101df57600080fd5b505afa1580156101f3573d6000803e3d6000fd5b505050506040513d601f19601f820116820180604052508101906102179190610c48565b9050600080836001600160a01b031663feaf968c6040518163ffffffff1660e01b815260040160a06040518083038186803b15801561025557600080fd5b505afa158015610269573d6000803e3d6000fd5b505050506040513d601f19601f8201168201806040525081019061028d9190610bf9565b5093505092505080965060128360ff16146102ca576102b060ff84166012610e1b565b6102bb90600a610d54565b6102c59083610dfc565b6102cc565b815b9750505050505050935093915050565b7f81d86068035827d44fe690100f2e97ca5a335cf5ebdd9b28f54af00b60c9f636547f81d86068035827d44fe690100f2e97ca5a335cf5ebdd9b28f54af00b60c9f634906001600160a01b0316331461037c5760405162461bcd60e51b815260206004820181905260248201527f506f6c6c656e44414f3a2061646d696e2061636365737320726571756972656460448201526064015b60405180910390fd5b7fbc94b9717bcfecf2f78d9ca346bf88df98a718216be6a96dfebd1de8d6697fc0600081818660018111156103c157634e487b7160e01b600052602160045260246000fd5b60018111156103e057634e487b7160e01b600052602160045260246000fd5b8152602080820192909252604090810160009081206001600160a01b038089168352935220541614156104555760405162461bcd60e51b815260206004820152601660248201527f51756f7465723a2066656564206e6f7420666f756e64000000000000000000006044820152606401610373565b6000818186600181111561047957634e487b7160e01b600052602160045260246000fd5b600181111561049857634e487b7160e01b600052602160045260246000fd5b81526020019081526020016000206000856001600160a01b03166001600160a01b0316815260200190815260200160002060006101000a8154816001600160a01b0302191690836001600160a01b03160217905550826001600160a01b03167fd9a211aa3bc8b403c86390816b6b44096adc73e0ac8db8570c639e0bace799d6856040516105269190610ca8565b60405180910390a25050505050565b7f81d86068035827d44fe690100f2e97ca5a335cf5ebdd9b28f54af00b60c9f636547f81d86068035827d44fe690100f2e97ca5a335cf5ebdd9b28f54af00b60c9f634906001600160a01b031633146105d05760405162461bcd60e51b815260206004820181905260248201527f506f6c6c656e44414f3a2061646d696e206163636573732072657175697265646044820152606401610373565b6105db8484846107b9565b5050505050565b7f81d86068035827d44fe690100f2e97ca5a335cf5ebdd9b28f54af00b60c9f636547f81d86068035827d44fe690100f2e97ca5a335cf5ebdd9b28f54af00b60c9f634906001600160a01b0316331461067d5760405162461bcd60e51b815260206004820181905260248201527f506f6c6c656e44414f3a2061646d696e206163636573732072657175697265646044820152606401610373565b60005b835181101561071b576107098582815181106106ac57634e487b7160e01b600052603260045260246000fd5b60200260200101518583815181106106d457634e487b7160e01b600052603260045260246000fd5b60200260200101518584815181106106fc57634e487b7160e01b600052603260045260246000fd5b60200260200101516107b9565b8061071381610e32565b915050610680565b505050505050565b60007fbc94b9717bcfecf2f78d9ca346bf88df98a718216be6a96dfebd1de8d6697fc0808285600181111561076857634e487b7160e01b600052602160045260246000fd5b600181111561078757634e487b7160e01b600052602160045260246000fd5b8152602080820192909252604090810160009081206001600160a01b03808816835293522054169150505b9392505050565b6001600160a01b0382166108345760405162461bcd60e51b8152602060048201526024808201527f51756f7465723a2061737365742063616e6e6f74206265207a65726f2061646460448201527f72657373000000000000000000000000000000000000000000000000000000006064820152608401610373565b6001600160a01b0381166108b05760405162461bcd60e51b815260206004820152602360248201527f51756f7465723a20666565642063616e6e6f74206265207a65726f206164647260448201527f65737300000000000000000000000000000000000000000000000000000000006064820152608401610373565b7fbc94b9717bcfecf2f78d9ca346bf88df98a718216be6a96dfebd1de8d6697fc0818160008660018111156108f557634e487b7160e01b600052602160045260246000fd5b600181111561091457634e487b7160e01b600052602160045260246000fd5b81526020019081526020016000206000856001600160a01b03166001600160a01b0316815260200190815260200160002060006101000a8154816001600160a01b0302191690836001600160a01b03160217905550826001600160a01b03167f16b006be54c6b95955a6a305798439f6ff0d8f5eb5b153f32857116a336c9ed983866040516109a4929190610c8b565b60405180910390a250505050565b80356001600160a01b03811681146109c957600080fd5b919050565b600082601f8301126109de578081fd5b813560206109f36109ee83610ced565b610cbc565b80838252828201915082860187848660051b8901011115610a12578586fd5b855b85811015610a3757610a25826109b2565b84529284019290840190600101610a14565b5090979650505050505050565b8035600281106109c957600080fd5b805169ffffffffffffffffffff811681146109c957600080fd5b60008060008060808587031215610a82578384fd5b610a8b856109b2565b935060208086013567ffffffffffffffff80821115610aa8578586fd5b818801915088601f830112610abb578586fd5b8135610ac96109ee82610ced565b8082825285820191508585018c878560051b8801011115610ae857898afd5b8995505b83861015610b1157610afd81610a44565b835260019590950194918601918601610aec565b50975050506040880135925080831115610b29578485fd5b610b3589848a016109ce565b94506060880135925080831115610b4a578384fd5b5050610b58878288016109ce565b91505092959194509250565b600080600060608486031215610b78578283fd5b610b81846109b2565b9250610b8f60208501610a44565b9150610b9d604085016109b2565b90509250925092565b60008060008060808587031215610bbb578384fd5b610bc4856109b2565b9350610bd260208601610a44565b9250610be0604086016109b2565b9150610bee606086016109b2565b905092959194509250565b600080600080600060a08688031215610c10578081fd5b610c1986610a53565b9450602086015193506040860151925060608601519150610c3c60808701610a53565b90509295509295909350565b600060208284031215610c59578081fd5b815160ff811681146107b2578182fd5b60028110610c8757634e487b7160e01b600052602160045260246000fd5b9052565b6001600160a01b0383168152604081016107b26020830184610c69565b60208101610cb68284610c69565b92915050565b604051601f8201601f1916810167ffffffffffffffff81118282101715610ce557610ce5610e63565b604052919050565b600067ffffffffffffffff821115610d0757610d07610e63565b5060051b60200190565b600181815b80851115610d4c578160001904821115610d3257610d32610e4d565b80851615610d3f57918102915b93841c9390800290610d16565b509250929050565b60006107b28383600082610d6a57506001610cb6565b81610d7757506000610cb6565b8160018114610d8d5760028114610d9757610db3565b6001915050610cb6565b60ff841115610da857610da8610e4d565b50506001821b610cb6565b5060208310610133831016604e8410600b8410161715610dd6575081810a610cb6565b610de08383610d11565b8060001904821115610df457610df4610e4d565b029392505050565b6000816000190483118215151615610e1657610e16610e4d565b500290565b600082821015610e2d57610e2d610e4d565b500390565b6000600019821415610e4657610e46610e4d565b5060010190565b634e487b7160e01b600052601160045260246000fd5b634e487b7160e01b600052604160045260246000fdfea2646970667358221220d6c7b63014bf68fb104312f6e8f28887ae0d54d8904477f6f258cf6c599980ed64736f6c63430008040033",
  "linkReferences": {},
  "deployedLinkReferences": {}
}