{
  "_format": "hh-sol-artifact-1",
  "contractName": "Portfolio",
  "sourceName": "contracts/PollenDAO/Modules/portfolio/Portfolio.sol",
  "abi": [
    {
      "anonymous": false,
      "inputs": [
        {
          "indexed": true,
          "internalType": "address",
          "name": "asset",
          "type": "address"
        }
      ],
      "name": "AssetAdded",
      "type": "event"
    },
    {
      "anonymous": false,
      "inputs": [
        {
          "indexed": true,
          "internalType": "address",
          "name": "asset",
          "type": "address"
        }
      ],
      "name": "AssetRemoved",
      "type": "event"
    },
    {
      "anonymous": false,
      "inputs": [
        {
          "indexed": true,
          "internalType": "address",
          "name": "creator",
          "type": "address"
        }
      ],
      "name": "PortfolioCreated",
      "type": "event"
    },
    {
      "inputs": [
        {
          "internalType": "address",
          "name": "",
          "type": "address"
        },
        {
          "internalType": "address",
          "name": "asset",
          "type": "address"
        }
      ],
      "name": "addAsset",
      "outputs": [],
      "stateMutability": "nonpayable",
      "type": "function"
    },
    {
      "inputs": [
        {
          "internalType": "address",
          "name": "",
          "type": "address"
        },
        {
          "internalType": "uint256",
          "name": "_amount",
          "type": "uint256"
        },
        {
          "internalType": "uint8[]",
          "name": "_weights",
          "type": "uint8[]"
        }
      ],
      "name": "createPortfolio",
      "outputs": [],
      "stateMutability": "nonpayable",
      "type": "function"
    },
    {
      "inputs": [
        {
          "internalType": "address",
          "name": "",
          "type": "address"
        }
      ],
      "name": "getAssetBalances",
      "outputs": [
        {
          "components": [
            {
              "internalType": "address",
              "name": "asset",
              "type": "address"
            },
            {
              "internalType": "uint256",
              "name": "balance",
              "type": "uint256"
            }
          ],
          "internalType": "struct PortfolioModuleStorage.AssetBalance[]",
          "name": "",
          "type": "tuple[]"
        }
      ],
      "stateMutability": "view",
      "type": "function"
    },
    {
      "inputs": [
        {
          "internalType": "address",
          "name": "",
          "type": "address"
        }
      ],
      "name": "getAssets",
      "outputs": [
        {
          "internalType": "address[]",
          "name": "",
          "type": "address[]"
        }
      ],
      "stateMutability": "view",
      "type": "function"
    },
    {
      "inputs": [
        {
          "internalType": "address",
          "name": "",
          "type": "address"
        },
        {
          "internalType": "address",
          "name": "owner",
          "type": "address"
        },
        {
          "internalType": "uint256",
          "name": "portfolioId",
          "type": "uint256"
        }
      ],
      "name": "getPortfolio",
      "outputs": [
        {
          "components": [
            {
              "internalType": "uint8[]",
              "name": "weights",
              "type": "uint8[]"
            },
            {
              "internalType": "uint256",
              "name": "initialValue",
              "type": "uint256"
            }
          ],
          "internalType": "struct PortfolioModuleStorage.Portfolio",
          "name": "",
          "type": "tuple"
        }
      ],
      "stateMutability": "view",
      "type": "function"
    },
    {
      "inputs": [
        {
          "internalType": "address",
          "name": "",
          "type": "address"
        },
        {
          "internalType": "address",
          "name": "asset",
          "type": "address"
        }
      ],
      "name": "removeAsset",
      "outputs": [],
      "stateMutability": "nonpayable",
      "type": "function"
    }
  ],
  "bytecode": "0x608060405234801561001057600080fd5b50611523806100206000396000f3fe608060405234801561001057600080fd5b50600436106100725760003560e01c8063742978da11610050578063742978da146100d5578063d34c35cb146100f5578063da4899971461010857600080fd5b80630344696614610077578063116b69d5146100a057806370d02691146100b5575b600080fd5b61008a61008536600461128a565b61011b565b604051610097919061142e565b60405180910390f35b6100b36100ae3660046112c5565b610218565b005b6100c86100c336600461123e565b61048f565b60405161009791906113d6565b6100e86100e336600461123e565b6107b7565b6040516100979190611389565b6100b3610103366004611258565b610954565b6100b3610116366004611258565b610bd5565b6040805180820182526060808252600060208084018290526001600160a01b03871682527f4b315e1f6aa2fb5751604958b7aaf30166efaa0806046d4c8249233d7d819c4181528482208683528152908490208451815492830281018401865294850182815293947f4b315e1f6aa2fb5751604958b7aaf30166efaa0806046d4c8249233d7d819c3c949093919284928491908401828280156101fb57602002820191906000526020600020906000905b825461010083900a900460ff168152602060019283018181049485019490930390920291018084116101cc5790505b505050505081526020016001820154815250509150509392505050565b7f4b315e1f6aa2fb5751604958b7aaf30166efaa0806046d4c8249233d7d819c3c80547f81d86068035827d44fe690100f2e97ca5a335cf5ebdd9b28f54af00b60c9f6349083146102d65760405162461bcd60e51b815260206004820152603460248201527f506f7274666f6c696f3a20776569676874732061727261792068617320746f2060448201527f657175616c206173736574207365742073697a6500000000000000000000000060648201526084015b60405180910390fd5b610312848480806020026020016040519081016040528093929190818152602001838360200280828437600092019190915250610d9392505050565b61031b57600080fd5b60408051606060208602808301820184529282018681526000938392899189918291908601908490808284376000920182905250938552505050602091820181905233815260058601825260408082206004880154835283529020825180519394508493919261039092849290910190611167565b50602091909101516001909101556004830180549060006103b0836114bc565b909155505060038201546040517f23b872dd000000000000000000000000000000000000000000000000000000008152336004820152306024820152604481018890526001600160a01b03909116906323b872dd90606401602060405180830381600087803b15801561042257600080fd5b505af1158015610436573d6000803e3d6000fd5b505050506040513d601f19601f8201168201806040525081019061045a919061134a565b5060405133907fa5944e921786e13d5dc58c0ca531d7d45ea1dee4e7a394e9e0a01f294cf61d4490600090a250505050505050565b7f4b315e1f6aa2fb5751604958b7aaf30166efaa0806046d4c8249233d7d819c3c8054604080516020808402820181019092528281526060939260009284919083018282801561050857602002820191906000526020600020905b81546001600160a01b031681526001909101906020018083116104ea575b5050505050905060008060005b83518110156105e957600084828151811061054057634e487b7160e01b600052603260045260246000fd5b60209081029190910101516040516370a0823160e01b81523060048201526001600160a01b03909116906370a082319060240160206040518083038186803b15801561058b57600080fd5b505afa15801561059f573d6000803e3d6000fd5b505050506040513d601f19601f820116820180604052508101906105c39190611371565b11156105d757816105d3816114bc565b9250505b806105e1816114bc565b915050610515565b5060008167ffffffffffffffff81111561061357634e487b7160e01b600052604160045260246000fd5b60405190808252806020026020018201604052801561065857816020015b60408051808201909152600080825260208201528152602001906001900390816106315790505b5090506000805b85518110156107aa5785818151811061068857634e487b7160e01b600052603260045260246000fd5b60209081029190910101516040516370a0823160e01b81523060048201526001600160a01b03909116906370a082319060240160206040518083038186803b1580156106d357600080fd5b505afa1580156106e7573d6000803e3d6000fd5b505050506040513d601f19601f8201168201806040525081019061070b9190611371565b94508415610798576000604051806040016040528088848151811061074057634e487b7160e01b600052603260045260246000fd5b60200260200101516001600160a01b031681526020018781525090508084848151811061077d57634e487b7160e01b600052603260045260246000fd5b60200260200101819052508280610793906114bc565b935050505b806107a2816114bc565b91505061065f565b5090979650505050505050565b7f4b315e1f6aa2fb5751604958b7aaf30166efaa0806046d4c8249233d7d819c3f546060907f4b315e1f6aa2fb5751604958b7aaf30166efaa0806046d4c8249233d7d819c3c9060009067ffffffffffffffff81111561082757634e487b7160e01b600052604160045260246000fd5b604051908082528060200260200182016040528015610850578160200160208202803683370190505b50905060005b600383015481101561094c578254600284019060009085908490811061088c57634e487b7160e01b600052603260045260246000fd5b60009182526020808320909101546001600160a01b0316835282019290925260400190205460ff161561093a5782548390829081106108db57634e487b7160e01b600052603260045260246000fd5b9060005260206000200160009054906101000a90046001600160a01b031682828151811061091957634e487b7160e01b600052603260045260246000fd5b60200260200101906001600160a01b031690816001600160a01b0316815250505b80610944816114bc565b915050610856565b509392505050565b7f81d86068035827d44fe690100f2e97ca5a335cf5ebdd9b28f54af00b60c9f636547f81d86068035827d44fe690100f2e97ca5a335cf5ebdd9b28f54af00b60c9f634906001600160a01b031633146109ef5760405162461bcd60e51b815260206004820181905260248201527f506f6c6c656e44414f3a2061646d696e2061636365737320726571756972656460448201526064016102cd565b6001600160a01b038216610a555760405162461bcd60e51b815260206004820152602760248201527f506f7274666f6c696f3a2061737365742063616e6e6f74206265207a65726f206044820152666164647265737360c81b60648201526084016102cd565b6040516370a0823160e01b81523060048201526001600160a01b038316906370a082319060240160206040518083038186803b158015610a9457600080fd5b505afa158015610aa8573d6000803e3d6000fd5b505050506040513d601f19601f82011682018060405250810190610acc9190611371565b15610b195760405162461bcd60e51b815260206004820152601c60248201527f506f7274666f6c696f3a206173736574206861732062616c616e63650000000060448201526064016102cd565b7f4b315e1f6aa2fb5751604958b7aaf30166efaa0806046d4c8249233d7d819c3c610b448184610f8a565b610b905760405162461bcd60e51b815260206004820152601b60248201527f506f7274666f6c696f3a206173736574206e6f7420696e20736574000000000060448201526064016102cd565b610b9a8184610fd7565b506040516001600160a01b038416907f37803e2125c48ee96c38ddf04e826daf335b0e1603579040fd275aba6d06b6fc90600090a250505050565b7f81d86068035827d44fe690100f2e97ca5a335cf5ebdd9b28f54af00b60c9f636547f81d86068035827d44fe690100f2e97ca5a335cf5ebdd9b28f54af00b60c9f634906001600160a01b03163314610c705760405162461bcd60e51b815260206004820181905260248201527f506f6c6c656e44414f3a2061646d696e2061636365737320726571756972656460448201526064016102cd565b6001600160a01b038216610cd65760405162461bcd60e51b815260206004820152602760248201527f506f7274666f6c696f3a2061737365742063616e6e6f74206265207a65726f206044820152666164647265737360c81b60648201526084016102cd565b7f4b315e1f6aa2fb5751604958b7aaf30166efaa0806046d4c8249233d7d819c3c610d018184610f8a565b15610d4e5760405162461bcd60e51b815260206004820152601f60248201527f506f7274666f6c696f3a20617373657420616c726561647920696e207365740060448201526064016102cd565b610d588184611069565b506040516001600160a01b038416907f0e3c58ebfb2e7465fbb1c32e6b4f40c3c4f5ca77e8218a386aff8617831260d790600090a250505050565b60007f4b315e1f6aa2fb5751604958b7aaf30166efaa0806046d4c8249233d7d819c3c81805b8451811015610f095782546002840190600090859084908110610dec57634e487b7160e01b600052603260045260246000fd5b60009182526020808320909101546001600160a01b0316835282019290925260400190205460ff16158015610e4c5750848181518110610e3c57634e487b7160e01b600052603260045260246000fd5b602002602001015160ff16600014155b15610ebf5760405162461bcd60e51b815260206004820152603060248201527f506f7274666f6c696f3a20776569676874206d757374206265203020666f722060448201527f612064656c69737465642061737365740000000000000000000000000000000060648201526084016102cd565b848181518110610edf57634e487b7160e01b600052603260045260246000fd5b602002602001015160ff1682610ef5919061148d565b915080610f01816114bc565b915050610db9565b5080606414610f805760405162461bcd60e51b815260206004820152602d60248201527f506f7274666f6c696f3a20617373657420776569676874732068617320746f2060448201527f61646420757020746f203130300000000000000000000000000000000000000060648201526084016102cd565b5060019392505050565b6001600160a01b038116600090815260018301602052604081205460ff168015610fce57506001600160a01b038216600090815260028401602052604090205460ff165b90505b92915050565b6001600160a01b038116600090815260018301602052604081205460ff16158061101c57506001600160a01b038216600090815260028401602052604090205460ff16155b1561102957506000610fd1565b6001600160a01b03821660009081526002840160205260408120805460ff191690556003840180549161105b836114a5565b909155506001949350505050565b6001600160a01b038116600090815260028301602052604081205460ff161561109457506000610fd1565b6001600160a01b038216600090815260018401602052604090205460ff1661112f578254600180820185556000858152602080822090930180547fffffffffffffffffffffffff0000000000000000000000000000000000000000166001600160a01b038716908117909155815281860183526040808220805460ff1990811685179091556002880190945290208054909216179055611155565b6001600160a01b03821660009081526002840160205260409020805460ff191660011790555b60038301805490600061105b836114bc565b82805482825590600052602060002090601f016020900481019282156111fd5791602002820160005b838211156111ce57835183826101000a81548160ff021916908360ff1602179055509260200192600101602081600001049283019260010302611190565b80156111fb5782816101000a81549060ff02191690556001016020816000010492830192600103026111ce565b505b5061120992915061120d565b5090565b5b80821115611209576000815560010161120e565b80356001600160a01b038116811461123957600080fd5b919050565b60006020828403121561124f578081fd5b610fce82611222565b6000806040838503121561126a578081fd5b61127383611222565b915061128160208401611222565b90509250929050565b60008060006060848603121561129e578081fd5b6112a784611222565b92506112b560208501611222565b9150604084013590509250925092565b600080600080606085870312156112da578081fd5b6112e385611222565b935060208501359250604085013567ffffffffffffffff80821115611306578283fd5b818701915087601f830112611319578283fd5b813581811115611327578384fd5b8860208260051b850101111561133b578384fd5b95989497505060200194505050565b60006020828403121561135b578081fd5b8151801515811461136a578182fd5b9392505050565b600060208284031215611382578081fd5b5051919050565b6020808252825182820181905260009190848201906040850190845b818110156113ca5783516001600160a01b0316835292840192918401916001016113a5565b50909695505050505050565b602080825282518282018190526000919060409081850190868401855b8281101561142157815180516001600160a01b031685528601518685015292840192908501906001016113f3565b5091979650505050505050565b6020808252825160408383015280516060840181905260009291820190839060808601905b8083101561147657835160ff168252928401926001929092019190840190611453565b508387015160408701528094505050505092915050565b600082198211156114a0576114a06114d7565b500190565b6000816114b4576114b46114d7565b506000190190565b60006000198214156114d0576114d06114d7565b5060010190565b634e487b7160e01b600052601160045260246000fdfea2646970667358221220bb3390a9ef57282fae643c20504d74670dde8e6e7d94408094ca0424e334d8cc64736f6c63430008040033",
  "linkReferences": {},
  "deployedLinkReferences": {}
}