{
  "_format": "hh-sol-artifact-1",
  "contractName": "Delegation",
  "sourceName": "contracts/PollenDAO/Modules/delegation/Delegation.sol",
  "abi": [
    {
      "anonymous": false,
      "inputs": [
        {
          "indexed": true,
          "internalType": "address",
          "name": "delegator",
          "type": "address"
        },
        {
          "indexed": true,
          "internalType": "address",
          "name": "delegatee",
          "type": "address"
        },
        {
          "indexed": false,
          "internalType": "uint256",
          "name": "amount",
          "type": "uint256"
        }
      ],
      "name": "Delegated",
      "type": "event"
    },
    {
      "inputs": [
        {
          "internalType": "address",
          "name": "",
          "type": "address"
        },
        {
          "internalType": "address[]",
          "name": "delegatees",
          "type": "address[]"
        },
        {
          "internalType": "uint256[]",
          "name": "amounts",
          "type": "uint256[]"
        }
      ],
      "name": "delegate",
      "outputs": [],
      "stateMutability": "nonpayable",
      "type": "function"
    },
    {
      "inputs": [
        {
          "internalType": "address",
          "name": "",
          "type": "address"
        },
        {
          "internalType": "address",
          "name": "delegator",
          "type": "address"
        },
        {
          "internalType": "address",
          "name": "delegatee",
          "type": "address"
        }
      ],
      "name": "getAllowance",
      "outputs": [
        {
          "internalType": "uint256",
          "name": "",
          "type": "uint256"
        }
      ],
      "stateMutability": "view",
      "type": "function"
    }
  ],
  "bytecode": "0x608060405234801561001057600080fd5b5061062b806100206000396000f3fe608060405234801561001057600080fd5b50600436106100365760003560e01c8063bcb4d5071461003b578063e7092b4114610050575b600080fd5b61004e6100493660046104f6565b6100bc565b005b6100aa61005e3660046104b4565b6001600160a01b0391821660009081527ffb61d7cad57b963cfa864d262e31825d0149f734e000da8e50517880c49cc11160209081526040808320939094168252919091522054919050565b60405190815260200160405180910390f35b60005b8381101561013d5761012b8585838181106100ea57634e487b7160e01b600052603260045260246000fd5b90506020020160208101906100ff9190610493565b84848481811061011f57634e487b7160e01b600052603260045260246000fd5b90506020020135610145565b80610135816105c4565b9150506100bf565b505050505050565b6001600160a01b038216331480159061016657506001600160a01b03821615155b6101b75760405162461bcd60e51b815260206004820152601d60248201527f44656c65676174696f6e3a20696e76616c69642064656c65676174656500000060448201526064015b60405180910390fd5b60007f81d86068035827d44fe690100f2e97ca5a335cf5ebdd9b28f54af00b60c9f63460038101546040517f70a0823100000000000000000000000000000000000000000000000000000000815233600482015291925083916001600160a01b03909116906370a082319060240160206040518083038186803b15801561023d57600080fd5b505afa158015610251573d6000803e3d6000fd5b505050506040513d601f19601f820116820180604052508101906102759190610594565b10156102e95760405162461bcd60e51b815260206004820152602260248201527f44656c65676174696f6e3a20616d6f756e7420657863656564732062616c616e60448201527f636500000000000000000000000000000000000000000000000000000000000060648201526084016101ae565b3360009081527ffb61d7cad57b963cfa864d262e31825d0149f734e000da8e50517880c49cc111602081815260408084206001600160a01b0388168552909152822080549192859261033c9084906105ac565b909155505060038201546040517f23b872dd000000000000000000000000000000000000000000000000000000008152336004820152306024820152604481018590526001600160a01b03909116906323b872dd90606401602060405180830381600087803b1580156103ae57600080fd5b505af11580156103c2573d6000803e3d6000fd5b505050506040513d601f19601f820116820180604052508101906103e69190610574565b506040518381526001600160a01b0385169033907fe5541a6b6103d4fa7e021ed54fad39c66f27a76bd13d374cf6240ae6bd0bb72b9060200160405180910390a350505050565b80356001600160a01b038116811461044457600080fd5b919050565b60008083601f84011261045a578182fd5b50813567ffffffffffffffff811115610471578182fd5b6020830191508360208260051b850101111561048c57600080fd5b9250929050565b6000602082840312156104a4578081fd5b6104ad8261042d565b9392505050565b6000806000606084860312156104c8578182fd5b6104d18461042d565b92506104df6020850161042d565b91506104ed6040850161042d565b90509250925092565b60008060008060006060868803121561050d578081fd5b6105168661042d565b9450602086013567ffffffffffffffff80821115610532578283fd5b61053e89838a01610449565b90965094506040880135915080821115610556578283fd5b5061056388828901610449565b969995985093965092949392505050565b600060208284031215610585578081fd5b815180151581146104ad578182fd5b6000602082840312156105a5578081fd5b5051919050565b600082198211156105bf576105bf6105df565b500190565b60006000198214156105d8576105d86105df565b5060010190565b634e487b7160e01b600052601160045260246000fdfea26469706673582212209482e0fff326aca8fe020ae8f60e29a106e3a6c4e80d7409656346cbf62e697b64736f6c63430008040033",
  "linkReferences": {},
  "deployedLinkReferences": {}
}