{
  "_format": "hh-sol-artifact-1",
  "contractName": "Proposals",
  "sourceName": "contracts/PollenDAO/Modules/proposals/Proposals.sol",
  "abi": [
    {
      "anonymous": false,
      "inputs": [
        {
          "indexed": true,
          "internalType": "uint256",
          "name": "proposalId",
          "type": "uint256"
        },
        {
          "indexed": false,
          "internalType": "enum DataTypes.ProposalType",
          "name": "proposalType",
          "type": "uint8"
        },
        {
          "indexed": true,
          "internalType": "address",
          "name": "submitter",
          "type": "address"
        }
      ],
      "name": "Submitted",
      "type": "event"
    },
    {
      "inputs": [
        {
          "internalType": "address",
          "name": "",
          "type": "address"
        },
        {
          "internalType": "uint256",
          "name": "proposalId",
          "type": "uint256"
        }
      ],
      "name": "getProposal",
      "outputs": [
        {
          "components": [
            {
              "internalType": "enum DataTypes.ProposalStatus",
              "name": "status",
              "type": "uint8"
            },
            {
              "internalType": "uint88",
              "name": "yesVotes",
              "type": "uint88"
            },
            {
              "internalType": "uint88",
              "name": "noVotes",
              "type": "uint88"
            }
          ],
          "internalType": "struct DataTypes.ProposalState",
          "name": "state",
          "type": "tuple"
        },
        {
          "components": [
            {
              "internalType": "uint32",
              "name": "votingOpen",
              "type": "uint32"
            },
            {
              "internalType": "uint32",
              "name": "votingExpiry",
              "type": "uint32"
            },
            {
              "internalType": "uint32",
              "name": "executionOpen",
              "type": "uint32"
            },
            {
              "internalType": "uint32",
              "name": "executionExpiry",
              "type": "uint32"
            },
            {
              "internalType": "uint88",
              "name": "passVotes",
              "type": "uint88"
            }
          ],
          "internalType": "struct DataTypes.ProposalParams",
          "name": "params",
          "type": "tuple"
        },
        {
          "components": [
            {
              "internalType": "enum DataTypes.ProposalType",
              "name": "proposalType",
              "type": "uint8"
            },
            {
              "internalType": "uint256",
              "name": "votingTermsId",
              "type": "uint256"
            },
            {
              "internalType": "address",
              "name": "submitter",
              "type": "address"
            },
            {
              "internalType": "address",
              "name": "executor",
              "type": "address"
            },
            {
              "internalType": "address",
              "name": "assetTokenAddress",
              "type": "address"
            },
            {
              "internalType": "uint256",
              "name": "assetTokenAmount",
              "type": "uint256"
            }
          ],
          "internalType": "struct DataTypes.ProposalTerms",
          "name": "terms",
          "type": "tuple"
        }
      ],
      "stateMutability": "view",
      "type": "function"
    },
    {
      "inputs": [
        {
          "internalType": "address",
          "name": "",
          "type": "address"
        },
        {
          "internalType": "enum DataTypes.ProposalType",
          "name": "proposalType",
          "type": "uint8"
        },
        {
          "internalType": "uint256",
          "name": "termsId",
          "type": "uint256"
        },
        {
          "internalType": "address",
          "name": "assetTokenAddress",
          "type": "address"
        },
        {
          "internalType": "uint256",
          "name": "assetTokenAmount",
          "type": "uint256"
        },
        {
          "internalType": "address",
          "name": "executor",
          "type": "address"
        }
      ],
      "name": "submit",
      "outputs": [],
      "stateMutability": "nonpayable",
      "type": "function"
    }
  ],
  "bytecode": "0x608060405234801561001057600080fd5b50610b77806100206000396000f3fe608060405234801561001057600080fd5b50600436106100365760003560e01c8063a9aec7f31461003b578063cfa38da714610050575b600080fd5b61004e610049366004610932565b61007b565b005b61006361005e36600461099c565b610675565b60405161007293929190610a39565b60405180910390f35b7f0319643e586a46efae86c5ca49267c2ce99d9440e13b8d9968852f17e7cd95d87f4b315e1f6aa2fb5751604958b7aaf30166efaa0806046d4c8249233d7d819c3c7fac7666af3b0b8476467b017fb53608803aef90dbee4191d018895c7f584708ac6001600160a01b03861661015f5760405162461bcd60e51b815260206004820152603360248201527f50726f706f73616c733a206173736574546f6b656e416464726573732063616e60448201527f6e6f74206265207a65726f20616464726573730000000000000000000000000060648201526084015b60405180910390fd5b61016982876108c9565b6101b55760405162461bcd60e51b815260206004820152601c60248201527f50726f706f73616c733a20756e737570706f72746564206173736574000000006044820152606401610156565b8254808460006101c483610afa565b91905055506040518060c001604052808a60018111156101f457634e487b7160e01b600052602160045260246000fd5b815260208082018b9052336040808401919091526001600160a01b0389811660608501528b16608084015260a090920189905260008481526001808901909252919091208251600290910180549092839160ff191690838181111561026957634e487b7160e01b600052602160045260246000fd5b02179055506020828101516001838101919091556040808501516002850180547fffffffffffffffffffffffff00000000000000000000000000000000000000009081166001600160a01b0393841617909155606080880151600388018054841691851691909117905560808089015160048901805490941694169390931790915560a09687015160059096019590955560008e8152928801845281832082516101008082018552915460ff8082161515835292810483161515968201969096526201000086048216938101939093526301000000850463ffffffff90811696840187905267010000000000000086048116928401929092526b01000000000000000000000085048216968301969096526f0100000000000000000000000000000084041660c082015273010000000000000000000000000000000000000090920490931660e08201529142916103c09083610ad2565b905060008360800151826103d49190610ad2565b905060008460a00151826103e89190610ad2565b90506040518060a001604052808563ffffffff1681526020018463ffffffff1681526020018363ffffffff1681526020018263ffffffff168152602001866040015160ff166affffffffffffffffffffff1681525089600101600088815260200190815260200160002060010160008201518160000160006101000a81548163ffffffff021916908363ffffffff16021790555060208201518160000160046101000a81548163ffffffff021916908363ffffffff16021790555060408201518160000160086101000a81548163ffffffff021916908363ffffffff160217905550606082015181600001600c6101000a81548163ffffffff021916908363ffffffff16021790555060808201518160000160106101000a8154816affffffffffffffffffffff02191690836affffffffffffffffffffff16021790555090505060405180606001604052806001600681111561055557634e487b7160e01b600052602160045260246000fd5b81526000602080830182905260409283018290528982526001808e019091529190208251815491929091839160ff19909116908360068111156105a857634e487b7160e01b600052602160045260246000fd5b0217905550602082015181546040938401516affffffffffffffffffffff9081166c01000000000000000000000000027fffffffffffffffffff0000000000000000000000ffffffffffffffffffffffff9190931661010002167fffffffffffffffffff00000000000000000000000000000000000000000000ff90911617179055513395508694507f99c5b6ea9eb9a4c357208cd416eb54f56c383e0fef7f40cfee0fc2345ddf3f85935061066192508e9150610a2b565b60405180910390a350505050505050505050565b60408051606081018252600080825260208201819052918101919091526040805160a080820183526000808352602080840182905283850182905260608085018390526080808601849052865160c081018852848152928301849052958201839052810182905293840181905290830152907f0319643e586a46efae86c5ca49267c2ce99d9440e13b8d9968852f17e7cd95d8805485116108c1576000858152600182016020526040908190208151606081019092528054829060ff16600681111561075157634e487b7160e01b600052602160045260246000fd5b600681111561077057634e487b7160e01b600052602160045260246000fd5b815290546affffffffffffffffffffff610100820481166020808501919091526c0100000000000000000000000092839004821660409485015260008a81526001878101808452868320875160a0810189528184015463ffffffff808216835264010000000082048116838901526801000000000000000082048116838c015298810490981660608201527001000000000000000000000000000000009097049095166080870152918c90529152835160c081019094526002909101805494985091965091929091839160ff169081111561085b57634e487b7160e01b600052602160045260246000fd5b600181111561087a57634e487b7160e01b600052602160045260246000fd5b81526001820154602082015260028201546001600160a01b039081166040830152600383015481166060830152600483015416608082015260059091015460a09091015291505b509250925092565b6001600160a01b038116600090815260018301602052604081205460ff16801561090d57506001600160a01b038216600090815260028401602052604090205460ff165b90505b92915050565b80356001600160a01b038116811461092d57600080fd5b919050565b60008060008060008060c0878903121561094a578182fd5b61095387610916565b9550602087013560028110610966578283fd5b94506040870135935061097b60608801610916565b92506080870135915061099060a08801610916565b90509295509295509295565b600080604083850312156109ae578182fd5b6109b783610916565b946020939093013593505050565b600281106109d5576109d5610b2b565b9052565b6109e48282516109c5565b6020810151602083015260408101516001600160a01b038082166040850152806060840151166060850152806080840151166080850152505060a081015160a08301525050565b6020810161091082846109c5565b83516101c082019060078110610a5157610a51610b2b565b8083525060208501516affffffffffffffffffffff808216602085015280604088015116604085015263ffffffff91508186511660608501528160208701511660808501528160408701511660a08501528160608701511660c08501528060808701511660e08501525050610aca6101008301846109d9565b949350505050565b600063ffffffff808316818516808303821115610af157610af1610b15565b01949350505050565b6000600019821415610b0e57610b0e610b15565b5060010190565b634e487b7160e01b600052601160045260246000fd5b634e487b7160e01b600052602160045260246000fdfea26469706673582212208ff426de15b9de86aae42abb30c903ec0173de1b2d27fd752dc5f7880abfe8a164736f6c63430008040033",
  "linkReferences": {},
  "deployedLinkReferences": {}
}