{
  "_format": "hh-sol-artifact-1",
  "contractName": "Voting",
  "sourceName": "contracts/PollenDAO/Modules/voting/Voting.sol",
  "abi": [
    {
      "anonymous": false,
      "inputs": [
        {
          "indexed": true,
          "internalType": "uint256",
          "name": "proposalId",
          "type": "uint256"
        },
        {
          "indexed": true,
          "internalType": "bool",
          "name": "vote",
          "type": "bool"
        },
        {
          "indexed": true,
          "internalType": "uint256",
          "name": "voteAmount",
          "type": "uint256"
        }
      ],
      "name": "VoteCast",
      "type": "event"
    },
    {
      "anonymous": false,
      "inputs": [
        {
          "indexed": true,
          "internalType": "uint256",
          "name": "termsId",
          "type": "uint256"
        },
        {
          "indexed": false,
          "internalType": "bool",
          "name": "isEnabled",
          "type": "bool"
        }
      ],
      "name": "VotingTermsSwitched",
      "type": "event"
    },
    {
      "inputs": [
        {
          "internalType": "address",
          "name": "",
          "type": "address"
        },
        {
          "components": [
            {
              "internalType": "bool",
              "name": "isEnabled",
              "type": "bool"
            },
            {
              "internalType": "bool",
              "name": "isExclPools",
              "type": "bool"
            },
            {
              "internalType": "uint8",
              "name": "quorum",
              "type": "uint8"
            },
            {
              "internalType": "uint32",
              "name": "votingExpiryDelay",
              "type": "uint32"
            },
            {
              "internalType": "uint32",
              "name": "executionOpenDelay",
              "type": "uint32"
            },
            {
              "internalType": "uint32",
              "name": "executionExpiryDelay",
              "type": "uint32"
            },
            {
              "internalType": "uint32",
              "name": "restrictExecPeriod",
              "type": "uint32"
            },
            {
              "internalType": "uint8",
              "name": "maxImpact",
              "type": "uint8"
            }
          ],
          "internalType": "struct DataTypes.VotingTerms",
          "name": "terms",
          "type": "tuple"
        }
      ],
      "name": "addVotingTerms",
      "outputs": [
        {
          "internalType": "uint256",
          "name": "termsId",
          "type": "uint256"
        }
      ],
      "stateMutability": "nonpayable",
      "type": "function"
    },
    {
      "inputs": [
        {
          "internalType": "address",
          "name": "",
          "type": "address"
        }
      ],
      "name": "getTermSheetNumber",
      "outputs": [
        {
          "internalType": "uint256",
          "name": "",
          "type": "uint256"
        }
      ],
      "stateMutability": "view",
      "type": "function"
    },
    {
      "inputs": [
        {
          "internalType": "address",
          "name": "",
          "type": "address"
        },
        {
          "internalType": "uint256",
          "name": "proposalId",
          "type": "uint256"
        },
        {
          "internalType": "address",
          "name": "voter",
          "type": "address"
        }
      ],
      "name": "getVotesByVoter",
      "outputs": [
        {
          "internalType": "uint256",
          "name": "",
          "type": "uint256"
        }
      ],
      "stateMutability": "view",
      "type": "function"
    },
    {
      "inputs": [
        {
          "internalType": "address",
          "name": "",
          "type": "address"
        },
        {
          "internalType": "uint256",
          "name": "termsId",
          "type": "uint256"
        }
      ],
      "name": "getVotingTerms",
      "outputs": [
        {
          "components": [
            {
              "internalType": "bool",
              "name": "isEnabled",
              "type": "bool"
            },
            {
              "internalType": "bool",
              "name": "isExclPools",
              "type": "bool"
            },
            {
              "internalType": "uint8",
              "name": "quorum",
              "type": "uint8"
            },
            {
              "internalType": "uint32",
              "name": "votingExpiryDelay",
              "type": "uint32"
            },
            {
              "internalType": "uint32",
              "name": "executionOpenDelay",
              "type": "uint32"
            },
            {
              "internalType": "uint32",
              "name": "executionExpiryDelay",
              "type": "uint32"
            },
            {
              "internalType": "uint32",
              "name": "restrictExecPeriod",
              "type": "uint32"
            },
            {
              "internalType": "uint8",
              "name": "maxImpact",
              "type": "uint8"
            }
          ],
          "internalType": "struct DataTypes.VotingTerms",
          "name": "votingTerms",
          "type": "tuple"
        }
      ],
      "stateMutability": "view",
      "type": "function"
    },
    {
      "inputs": [
        {
          "internalType": "address",
          "name": "",
          "type": "address"
        },
        {
          "internalType": "uint256",
          "name": "termsId",
          "type": "uint256"
        },
        {
          "internalType": "bool",
          "name": "isEnabled",
          "type": "bool"
        }
      ],
      "name": "switchVotingTerms",
      "outputs": [],
      "stateMutability": "nonpayable",
      "type": "function"
    },
    {
      "inputs": [
        {
          "internalType": "address",
          "name": "",
          "type": "address"
        },
        {
          "internalType": "uint256",
          "name": "proposalId",
          "type": "uint256"
        },
        {
          "internalType": "bool",
          "name": "vote",
          "type": "bool"
        },
        {
          "internalType": "uint256",
          "name": "amount",
          "type": "uint256"
        }
      ],
      "name": "voteOn",
      "outputs": [],
      "stateMutability": "nonpayable",
      "type": "function"
    }
  ],
  "bytecode": "0x608060405234801561001057600080fd5b50610fa6806100206000396000f3fe608060405234801561001057600080fd5b50600436106100725760003560e01c80635fb4b5a1116100505780635fb4b5a1146100d2578063db8cfdf11461010a578063ee5babc51461011d57600080fd5b80631352b7441461007757806343e28a6c1461009d5780635916c113146100b2575b600080fd5b61008a610085366004610c44565b610174565b6040519081526020015b60405180910390f35b6100b06100ab366004610d9d565b610546565b005b6100c56100c0366004610d39565b6106b2565b6040516100949190610e55565b61008a6100e0366004610c23565b507fac7666af3b0b8476467b017fb53608803aef90dbee4191d018895c7f584708ac5461ffff1690565b6100b0610118366004610ddc565b6107d3565b61008a61012b366004610d62565b60009182527f81d86068035827d44fe690100f2e97ca5a335cf5ebdd9b28f54af00b60c9f635602090815260408084206001600160a01b03939093168452919052902054919050565b7f81d86068035827d44fe690100f2e97ca5a335cf5ebdd9b28f54af00b60c9f636546000907f81d86068035827d44fe690100f2e97ca5a335cf5ebdd9b28f54af00b60c9f634906001600160a01b031633146102175760405162461bcd60e51b815260206004820181905260248201527f506f6c6c656e44414f3a2061646d696e2061636365737320726571756972656460448201526064015b60405180910390fd5b6064836040015160ff16111561026f5760405162461bcd60e51b815260206004820152601660248201527f566f74696e673a20696e76616c69642071756f72756d00000000000000000000604482015260640161020e565b603c836060015163ffffffff161180156102935750603c836080015163ffffffff16115b80156102a95750603c8360a0015163ffffffff16115b80156102c257506301e13380836060015163ffffffff16105b80156102db57506301e13380836080015163ffffffff16105b80156102f457506301e133808360a0015163ffffffff16105b801561031457508260a0015163ffffffff168360c0015163ffffffff1611155b6103605760405162461bcd60e51b815260206004820152601660248201527f566f74696e673a20696e76616c69642064656c61797300000000000000000000604482015260640161020e565b7fac7666af3b0b8476467b017fb53608803aef90dbee4191d018895c7f584708ac805461ffff1660008181527fac7666af3b0b8476467b017fb53608803aef90dbee4191d018895c7f584708ad602090815260409182902087518154928901519389015160608a015160808b015160a08c015160c08d015160e08e015161ffff1990981695151561ff00191695909517610100981515989098029790971766ffffffffff000019166201000060ff9485160266ffffffff000000191617630100000063ffffffff93841602176effffffffffffffff000000000000001916670100000000000000918316919091026effffffff00000000000000000000001916176b01000000000000000000000096821696909602959095177fffffffffffffffffffffffff0000000000ffffffffffffffffffffffffffffff166f0100000000000000000000000000000095909216949094027fffffffffffffffffffffffff00ffffffffffffffffffffffffffffffffffffff1617600160981b939092169290920217905592506104f4836001610ee9565b815461ffff191661ffff919091161781558351604051901515815283907f61242ade1bd62629c96da2f2338d345e3d6cdd4cd59764c0c50deddd55e0f3c19060200160405180910390a2505092915050565b7f81d86068035827d44fe690100f2e97ca5a335cf5ebdd9b28f54af00b60c9f636547f81d86068035827d44fe690100f2e97ca5a335cf5ebdd9b28f54af00b60c9f634906001600160a01b031633146105e15760405162461bcd60e51b815260206004820181905260248201527f506f6c6c656e44414f3a2061646d696e20616363657373207265717569726564604482015260640161020e565b7fac7666af3b0b8476467b017fb53608803aef90dbee4191d018895c7f584708ac805461ffff1684106106565760405162461bcd60e51b815260206004820152601760248201527f566f74696e673a20696e76616c6964207465726d734964000000000000000000604482015260640161020e565b6000848152600182016020908152604091829020805460ff1916861515908117909155915191825285917f61242ade1bd62629c96da2f2338d345e3d6cdd4cd59764c0c50deddd55e0f3c1910160405180910390a25050505050565b6040805161010081018252600080825260208201819052918101829052606081018290526080810182905260a0810182905260c0810182905260e08101919091527fac7666af3b0b8476467b017fb53608803aef90dbee4191d018895c7f584708ac805461ffff168310156107cc57600083815260018201602090815260409182902082516101008082018552915460ff80821615158352928104831615159382019390935262010000830482169381019390935263ffffffff63010000008304811660608501526701000000000000008304811660808501526b0100000000000000000000008304811660a08501526f0100000000000000000000000000000083041660c0840152600160981b9091041660e082015291505b5092915050565b7f0319643e586a46efae86c5ca49267c2ce99d9440e13b8d9968852f17e7cd95d880547f81d86068035827d44fe690100f2e97ca5a335cf5ebdd9b28f54af00b60c9f6349085106108665760405162461bcd60e51b815260206004820152601b60248201527f566f74696e673a20696e76616c69642070726f706f73616c2069640000000000604482015260640161020e565b6001600086815260018401602052604090205460ff16600681111561089b57634e487b7160e01b600052602160045260246000fd5b146108e85760405162461bcd60e51b815260206004820152601f60248201527f566f74696e673a20696e76616c69642070726f706f73616c2073746174757300604482015260640161020e565b60038101546040517f70a0823100000000000000000000000000000000000000000000000000000000815233600482015284916001600160a01b0316906370a082319060240160206040518083038186803b15801561094657600080fd5b505afa15801561095a573d6000803e3d6000fd5b505050506040513d601f19601f8201168201806040525081019061097e9190610e3d565b10156109f25760405162461bcd60e51b815260206004820152602360248201527f566f74696e673a20696e73756666696369656e7420504f4c4c454e2062616c6160448201527f6e63650000000000000000000000000000000000000000000000000000000000606482015260840161020e565b83610a6757600085815260018301602052604090208054849190600c90610a379084906c0100000000000000000000000090046affffffffffffffffffffff16610f27565b92506101000a8154816affffffffffffffffffffff02191690836affffffffffffffffffffff1602179055610ac7565b6000858152600183810160205260409091208054859290610a9b90849061010090046affffffffffffffffffffff16610f27565b92506101000a8154816affffffffffffffffffffff02191690836affffffffffffffffffffff16021790555b5060038101546040517f23b872dd000000000000000000000000000000000000000000000000000000008152336004820152306024820152604481018590526001600160a01b03909116906323b872dd90606401602060405180830381600087803b158015610b3557600080fd5b505af1158015610b49573d6000803e3d6000fd5b505050506040513d601f19601f82011682018060405250810190610b6d9190610e21565b506000858152600182016020908152604080832033845290915281208054859290610b99908490610f0f565b909155505060405183908515159087907fee358b70feb31defabe34f41b973e45e9d6d5742b67e164e6d15ad5c5ae606e490600090a4505050505050565b80356001600160a01b0381168114610bee57600080fd5b919050565b8035610bee81610f5f565b803563ffffffff81168114610bee57600080fd5b803560ff81168114610bee57600080fd5b600060208284031215610c34578081fd5b610c3d82610bd7565b9392505050565b600080828403610120811215610c58578182fd5b610c6184610bd7565b925061010080601f1983011215610c76578283fd5b604051915080820182811067ffffffffffffffff82111715610ca657634e487b7160e01b84526041600452602484fd5b604052610cb560208601610bf3565b8252610cc360408601610bf3565b6020830152610cd460608601610c12565b6040830152610ce560808601610bfe565b6060830152610cf660a08601610bfe565b6080830152610d0760c08601610bfe565b60a0830152610d1860e08601610bfe565b60c0830152610d28818601610c12565b60e083015250809150509250929050565b60008060408385031215610d4b578182fd5b610d5483610bd7565b946020939093013593505050565b600080600060608486031215610d76578081fd5b610d7f84610bd7565b925060208401359150610d9460408501610bd7565b90509250925092565b600080600060608486031215610db1578283fd5b610dba84610bd7565b9250602084013591506040840135610dd181610f5f565b809150509250925092565b60008060008060808587031215610df1578081fd5b610dfa85610bd7565b9350602085013592506040850135610e1181610f5f565b9396929550929360600135925050565b600060208284031215610e32578081fd5b8151610c3d81610f5f565b600060208284031215610e4e578081fd5b5051919050565b60006101008201905082511515825260208301511515602083015260ff604084015116604083015263ffffffff60608401511660608301526080830151610ea4608084018263ffffffff169052565b5060a0830151610ebc60a084018263ffffffff169052565b5060c0830151610ed460c084018263ffffffff169052565b5060e08301516107cc60e084018260ff169052565b600061ffff808316818516808303821115610f0657610f06610f49565b01949350505050565b60008219821115610f2257610f22610f49565b500190565b60006affffffffffffffffffffff808316818516808303821115610f0657610f065b634e487b7160e01b600052601160045260246000fd5b8015158114610f6d57600080fd5b5056fea2646970667358221220f5fa7aa378a7e0b3532a7c06c36269c33f787265f99aa9b8865dcdbe6ba1d19264736f6c63430008040033",
  "linkReferences": {},
  "deployedLinkReferences": {}
}