{
  "_format": "hh-sol-artifact-1",
  "contractName": "PAI",
  "sourceName": "contracts/PAI/PAI.sol",
  "abi": [
    {
      "anonymous": false,
      "inputs": [
        {
          "indexed": true,
          "internalType": "address",
          "name": "owner",
          "type": "address"
        },
        {
          "indexed": true,
          "internalType": "address",
          "name": "spender",
          "type": "address"
        },
        {
          "indexed": false,
          "internalType": "uint256",
          "name": "value",
          "type": "uint256"
        }
      ],
      "name": "Approval",
      "type": "event"
    },
    {
      "anonymous": false,
      "inputs": [
        {
          "indexed": true,
          "internalType": "address",
          "name": "previousOwner",
          "type": "address"
        },
        {
          "indexed": true,
          "internalType": "address",
          "name": "newOwner",
          "type": "address"
        }
      ],
      "name": "OwnershipTransferred",
      "type": "event"
    },
    {
      "anonymous": false,
      "inputs": [
        {
          "indexed": true,
          "internalType": "address",
          "name": "from",
          "type": "address"
        },
        {
          "indexed": true,
          "internalType": "address",
          "name": "to",
          "type": "address"
        },
        {
          "indexed": false,
          "internalType": "uint256",
          "name": "value",
          "type": "uint256"
        }
      ],
      "name": "Transfer",
      "type": "event"
    },
    {
      "inputs": [
        {
          "internalType": "address",
          "name": "owner",
          "type": "address"
        },
        {
          "internalType": "address",
          "name": "spender",
          "type": "address"
        }
      ],
      "name": "allowance",
      "outputs": [
        {
          "internalType": "uint256",
          "name": "",
          "type": "uint256"
        }
      ],
      "stateMutability": "view",
      "type": "function"
    },
    {
      "inputs": [
        {
          "internalType": "address",
          "name": "spender",
          "type": "address"
        },
        {
          "internalType": "uint256",
          "name": "amount",
          "type": "uint256"
        }
      ],
      "name": "approve",
      "outputs": [
        {
          "internalType": "bool",
          "name": "",
          "type": "bool"
        }
      ],
      "stateMutability": "nonpayable",
      "type": "function"
    },
    {
      "inputs": [
        {
          "internalType": "address",
          "name": "account",
          "type": "address"
        }
      ],
      "name": "balanceOf",
      "outputs": [
        {
          "internalType": "uint256",
          "name": "",
          "type": "uint256"
        }
      ],
      "stateMutability": "view",
      "type": "function"
    },
    {
      "inputs": [],
      "name": "decimals",
      "outputs": [
        {
          "internalType": "uint8",
          "name": "",
          "type": "uint8"
        }
      ],
      "stateMutability": "view",
      "type": "function"
    },
    {
      "inputs": [
        {
          "internalType": "address",
          "name": "spender",
          "type": "address"
        },
        {
          "internalType": "uint256",
          "name": "subtractedValue",
          "type": "uint256"
        }
      ],
      "name": "decreaseAllowance",
      "outputs": [
        {
          "internalType": "bool",
          "name": "",
          "type": "bool"
        }
      ],
      "stateMutability": "nonpayable",
      "type": "function"
    },
    {
      "inputs": [
        {
          "internalType": "address",
          "name": "spender",
          "type": "address"
        },
        {
          "internalType": "uint256",
          "name": "addedValue",
          "type": "uint256"
        }
      ],
      "name": "increaseAllowance",
      "outputs": [
        {
          "internalType": "bool",
          "name": "",
          "type": "bool"
        }
      ],
      "stateMutability": "nonpayable",
      "type": "function"
    },
    {
      "inputs": [],
      "name": "initialize",
      "outputs": [],
      "stateMutability": "nonpayable",
      "type": "function"
    },
    {
      "inputs": [],
      "name": "name",
      "outputs": [
        {
          "internalType": "string",
          "name": "",
          "type": "string"
        }
      ],
      "stateMutability": "view",
      "type": "function"
    },
    {
      "inputs": [],
      "name": "owner",
      "outputs": [
        {
          "internalType": "address",
          "name": "",
          "type": "address"
        }
      ],
      "stateMutability": "view",
      "type": "function"
    },
    {
      "inputs": [],
      "name": "renounceOwnership",
      "outputs": [],
      "stateMutability": "nonpayable",
      "type": "function"
    },
    {
      "inputs": [],
      "name": "symbol",
      "outputs": [
        {
          "internalType": "string",
          "name": "",
          "type": "string"
        }
      ],
      "stateMutability": "view",
      "type": "function"
    },
    {
      "inputs": [],
      "name": "totalSupply",
      "outputs": [
        {
          "internalType": "uint256",
          "name": "",
          "type": "uint256"
        }
      ],
      "stateMutability": "view",
      "type": "function"
    },
    {
      "inputs": [
        {
          "internalType": "address",
          "name": "recipient",
          "type": "address"
        },
        {
          "internalType": "uint256",
          "name": "amount",
          "type": "uint256"
        }
      ],
      "name": "transfer",
      "outputs": [
        {
          "internalType": "bool",
          "name": "",
          "type": "bool"
        }
      ],
      "stateMutability": "nonpayable",
      "type": "function"
    },
    {
      "inputs": [
        {
          "internalType": "address",
          "name": "sender",
          "type": "address"
        },
        {
          "internalType": "address",
          "name": "recipient",
          "type": "address"
        },
        {
          "internalType": "uint256",
          "name": "amount",
          "type": "uint256"
        }
      ],
      "name": "transferFrom",
      "outputs": [
        {
          "internalType": "bool",
          "name": "",
          "type": "bool"
        }
      ],
      "stateMutability": "nonpayable",
      "type": "function"
    },
    {
      "inputs": [
        {
          "internalType": "address",
          "name": "newOwner",
          "type": "address"
        }
      ],
      "name": "transferOwnership",
      "outputs": [],
      "stateMutability": "nonpayable",
      "type": "function"
    }
  ],
  "bytecode": "0x608060405234801561001057600080fd5b506110de806100206000396000f3fe608060405234801561001057600080fd5b50600436106100f55760003560e01c8063715018a611610097578063a457c2d711610066578063a457c2d7146101e0578063a9059cbb146101f3578063dd62ed3e14610206578063f2fde38b1461023f57600080fd5b8063715018a6146101ab5780638129fc1c146101b55780638da5cb5b146101bd57806395d89b41146101d857600080fd5b806323b872dd116100d357806323b872dd1461014d578063313ce56714610160578063395093511461016f57806370a082311461018257600080fd5b806306fdde03146100fa578063095ea7b31461011857806318160ddd1461013b575b600080fd5b610102610252565b60405161010f9190610ff6565b60405180910390f35b61012b610126366004610fcd565b6102e4565b604051901515815260200161010f565b6035545b60405190815260200161010f565b61012b61015b366004610f92565b6102fa565b6040516012815260200161010f565b61012b61017d366004610fcd565b6103be565b61013f610190366004610f3f565b6001600160a01b031660009081526033602052604090205490565b6101b36103fa565b005b6101b3610460565b6065546040516001600160a01b03909116815260200161010f565b61010261055b565b61012b6101ee366004610fcd565b61056a565b61012b610201366004610fcd565b61061b565b61013f610214366004610f60565b6001600160a01b03918216600090815260346020908152604080832093909416825291909152205490565b6101b361024d366004610f3f565b610628565b6060603680546102619061106d565b80601f016020809104026020016040519081016040528092919081815260200182805461028d9061106d565b80156102da5780601f106102af576101008083540402835291602001916102da565b820191906000526020600020905b8154815290600101906020018083116102bd57829003601f168201915b5050505050905090565b60006102f1338484610707565b50600192915050565b600061030784848461085f565b6001600160a01b0384166000908152603460209081526040808320338452909152902054828110156103a65760405162461bcd60e51b815260206004820152602860248201527f45524332303a207472616e7366657220616d6f756e742065786365656473206160448201527f6c6c6f77616e636500000000000000000000000000000000000000000000000060648201526084015b60405180910390fd5b6103b38533858403610707565b506001949350505050565b3360008181526034602090815260408083206001600160a01b038716845290915281205490916102f19185906103f5908690611049565b610707565b6065546001600160a01b031633146104545760405162461bcd60e51b815260206004820181905260248201527f4f776e61626c653a2063616c6c6572206973206e6f7420746865206f776e6572604482015260640161039d565b61045e6000610a77565b565b600054610100900460ff1680610479575060005460ff16155b6104dc5760405162461bcd60e51b815260206004820152602e60248201527f496e697469616c697a61626c653a20636f6e747261637420697320616c72656160448201526d191e481a5b9a5d1a585b1a5e995960921b606482015260840161039d565b600054610100900460ff161580156104fe576000805461ffff19166101011790555b61053e6040518060400160405280600381526020016250414960e81b8152506040518060400160405280600381526020016250414960e81b815250610ae1565b610546610ba8565b8015610558576000805461ff00191690555b50565b6060603780546102619061106d565b3360009081526034602090815260408083206001600160a01b0386168452909152812054828110156106045760405162461bcd60e51b815260206004820152602560248201527f45524332303a2064656372656173656420616c6c6f77616e63652062656c6f7760448201527f207a65726f000000000000000000000000000000000000000000000000000000606482015260840161039d565b6106113385858403610707565b5060019392505050565b60006102f133848461085f565b6065546001600160a01b031633146106825760405162461bcd60e51b815260206004820181905260248201527f4f776e61626c653a2063616c6c6572206973206e6f7420746865206f776e6572604482015260640161039d565b6001600160a01b0381166106fe5760405162461bcd60e51b815260206004820152602660248201527f4f776e61626c653a206e6577206f776e657220697320746865207a65726f206160448201527f6464726573730000000000000000000000000000000000000000000000000000606482015260840161039d565b61055881610a77565b6001600160a01b0383166107825760405162461bcd60e51b8152602060048201526024808201527f45524332303a20617070726f76652066726f6d20746865207a65726f2061646460448201527f7265737300000000000000000000000000000000000000000000000000000000606482015260840161039d565b6001600160a01b0382166107fe5760405162461bcd60e51b815260206004820152602260248201527f45524332303a20617070726f766520746f20746865207a65726f20616464726560448201527f7373000000000000000000000000000000000000000000000000000000000000606482015260840161039d565b6001600160a01b0383811660008181526034602090815260408083209487168084529482529182902085905590518481527f8c5be1e5ebec7d5bd14f71427d1e84f3dd0314c0f7b2291e5b200ac8c7c3b925910160405180910390a3505050565b6001600160a01b0383166108db5760405162461bcd60e51b815260206004820152602560248201527f45524332303a207472616e736665722066726f6d20746865207a65726f20616460448201527f6472657373000000000000000000000000000000000000000000000000000000606482015260840161039d565b6001600160a01b0382166109575760405162461bcd60e51b815260206004820152602360248201527f45524332303a207472616e7366657220746f20746865207a65726f206164647260448201527f6573730000000000000000000000000000000000000000000000000000000000606482015260840161039d565b6001600160a01b038316600090815260336020526040902054818110156109e65760405162461bcd60e51b815260206004820152602660248201527f45524332303a207472616e7366657220616d6f756e742065786365656473206260448201527f616c616e63650000000000000000000000000000000000000000000000000000606482015260840161039d565b6001600160a01b03808516600090815260336020526040808220858503905591851681529081208054849290610a1d908490611049565b92505081905550826001600160a01b0316846001600160a01b03167fddf252ad1be2c89b69c2b068fc378daa952ba7f163c4a11628f55a4df523b3ef84604051610a6991815260200190565b60405180910390a350505050565b606580546001600160a01b038381167fffffffffffffffffffffffff0000000000000000000000000000000000000000831681179093556040519116919082907f8be0079c531659141344cd1fd0a4f28419497f9722a3daafe3b4186f6b6457e090600090a35050565b600054610100900460ff1680610afa575060005460ff16155b610b5d5760405162461bcd60e51b815260206004820152602e60248201527f496e697469616c697a61626c653a20636f6e747261637420697320616c72656160448201526d191e481a5b9a5d1a585b1a5e995960921b606482015260840161039d565b600054610100900460ff16158015610b7f576000805461ffff19166101011790555b610b87610c56565b610b918383610d07565b8015610ba3576000805461ff00191690555b505050565b600054610100900460ff1680610bc1575060005460ff16155b610c245760405162461bcd60e51b815260206004820152602e60248201527f496e697469616c697a61626c653a20636f6e747261637420697320616c72656160448201526d191e481a5b9a5d1a585b1a5e995960921b606482015260840161039d565b600054610100900460ff16158015610c46576000805461ffff19166101011790555b610c4e610c56565b610546610de3565b600054610100900460ff1680610c6f575060005460ff16155b610cd25760405162461bcd60e51b815260206004820152602e60248201527f496e697469616c697a61626c653a20636f6e747261637420697320616c72656160448201526d191e481a5b9a5d1a585b1a5e995960921b606482015260840161039d565b600054610100900460ff16158015610546576000805461ffff19166101011790558015610558576000805461ff001916905550565b600054610100900460ff1680610d20575060005460ff16155b610d835760405162461bcd60e51b815260206004820152602e60248201527f496e697469616c697a61626c653a20636f6e747261637420697320616c72656160448201526d191e481a5b9a5d1a585b1a5e995960921b606482015260840161039d565b600054610100900460ff16158015610da5576000805461ffff19166101011790555b8251610db8906036906020860190610e8a565b508151610dcc906037906020850190610e8a565b508015610ba3576000805461ff0019169055505050565b600054610100900460ff1680610dfc575060005460ff16155b610e5f5760405162461bcd60e51b815260206004820152602e60248201527f496e697469616c697a61626c653a20636f6e747261637420697320616c72656160448201526d191e481a5b9a5d1a585b1a5e995960921b606482015260840161039d565b600054610100900460ff16158015610e81576000805461ffff19166101011790555b61054633610a77565b828054610e969061106d565b90600052602060002090601f016020900481019282610eb85760008555610efe565b82601f10610ed157805160ff1916838001178555610efe565b82800160010185558215610efe579182015b82811115610efe578251825591602001919060010190610ee3565b50610f0a929150610f0e565b5090565b5b80821115610f0a5760008155600101610f0f565b80356001600160a01b0381168114610f3a57600080fd5b919050565b600060208284031215610f50578081fd5b610f5982610f23565b9392505050565b60008060408385031215610f72578081fd5b610f7b83610f23565b9150610f8960208401610f23565b90509250929050565b600080600060608486031215610fa6578081fd5b610faf84610f23565b9250610fbd60208501610f23565b9150604084013590509250925092565b60008060408385031215610fdf578182fd5b610fe883610f23565b946020939093013593505050565b6000602080835283518082850152825b8181101561102257858101830151858201604001528201611006565b818111156110335783604083870101525b50601f01601f1916929092016040019392505050565b6000821982111561106857634e487b7160e01b81526011600452602481fd5b500190565b600181811c9082168061108157607f821691505b602082108114156110a257634e487b7160e01b600052602260045260246000fd5b5091905056fea26469706673582212204f2e62ab2f3530bdbf2b047ec57fe18dd331a06942e87ab76f53e309135aafdc64736f6c63430008040033",
  "linkReferences": {},
  "deployedLinkReferences": {}
}